:1000000000308A004D2800002C3084008313000843
:10001000031918280130F800F701F70B0D28F80B29
:100020000C284A30F700F70B13281628800B0A28F3
:100030000800AA01A9010430AB00C830AC000420BC
:10004000AB0B1D282A082702031C4C28031D2C2853
:100050002608290203184C28A50803193728240864
:10006000033C031C3528A40A3628A4013E28A40812
:1000700003193C28A4033E280430A40020302407A0
:10008000840083130008AB0088002808AC0004201B
:10009000A90A0319AA0A2228080003081F398300A5
:1000A00083161F149F141F159F118313063083128C
:1000B000A0000330A1000930A2000C30A3000030E2
:1000C000831688008312A4010130A500A7013230F5
:1000D000A6009030A8001920A501A7016430A60051
:0A00E000C830A8001920632863004F
:02400E00313F40
:00000001FF
;PIC16F877
;CRC=D468  CREATED="16-set-21 20:07"
